{
  "address": "0x37dC9B6Aebc5A4a7c6fd22F2CE2Ac528a79D77d8",
  "abi": [
    {
      "inputs": [
        {
          "internalType": "address",
          "name": "_owner",
          "type": "address"
        },
        {
          "internalType": "address",
          "name": "_paymentToken",
          "type": "address"
        }
      ],
      "stateMutability": "nonpayable",
      "type": "constructor"
    },
    {
      "anonymous": false,
      "inputs": [
        {
          "indexed": false,
          "internalType": "uint256",
          "name": "oldCost",
          "type": "uint256"
        },
        {
          "indexed": false,
          "internalType": "uint256",
          "name": "newCost",
          "type": "uint256"
        }
      ],
      "name": "ViniappCostUpdated",
      "type": "event"
    },
    {
      "anonymous": false,
      "inputs": [
        {
          "indexed": true,
          "internalType": "address",
          "name": "viniappUser",
          "type": "address"
        },
        {
          "indexed": false,
          "internalType": "uint256",
          "name": "viniappCost",
          "type": "uint256"
        }
      ],
      "name": "ViniappCreated",
      "type": "event"
    },
    {
      "inputs": [
        {
          "internalType": "address",
          "name": "_user",
          "type": "address"
        }
      ],
      "name": "isApproved",
      "outputs": [
        {
          "internalType": "bool",
          "name": "",
          "type": "bool"
        }
      ],
      "stateMutability": "view",
      "type": "function"
    },
    {
      "inputs": [],
      "name": "owner",
      "outputs": [
        {
          "internalType": "address",
          "name": "",
          "type": "address"
        }
      ],
      "stateMutability": "view",
      "type": "function"
    },
    {
      "inputs": [],
      "name": "paymentToken",
      "outputs": [
        {
          "internalType": "contract IERC20",
          "name": "",
          "type": "address"
        }
      ],
      "stateMutability": "view",
      "type": "function"
    },
    {
      "inputs": [
        {
          "internalType": "uint256",
          "name": "_newCost",
          "type": "uint256"
        }
      ],
      "name": "setViniappCost",
      "outputs": [],
      "stateMutability": "nonpayable",
      "type": "function"
    },
    {
      "inputs": [],
      "name": "startViniappCreation",
      "outputs": [],
      "stateMutability": "nonpayable",
      "type": "function"
    },
    {
      "inputs": [],
      "name": "viniappCost",
      "outputs": [
        {
          "internalType": "uint256",
          "name": "",
          "type": "uint256"
        }
      ],
      "stateMutability": "view",
      "type": "function"
    },
    {
      "inputs": [],
      "name": "withdraw",
      "outputs": [],
      "stateMutability": "nonpayable",
      "type": "function"
    },
    {
      "inputs": [
        {
          "internalType": "uint256",
          "name": "_amount",
          "type": "uint256"
        }
      ],
      "name": "withdrawTokens",
      "outputs": [],
      "stateMutability": "nonpayable",
      "type": "function"
    },
    {
      "inputs": [
        {
          "internalType": "address",
          "name": "_to",
          "type": "address"
        },
        {
          "internalType": "uint256",
          "name": "_amount",
          "type": "uint256"
        }
      ],
      "name": "withdrawTokensTo",
      "outputs": [],
      "stateMutability": "nonpayable",
      "type": "function"
    }
  ],
  "transactionHash": "0xe1574b97feace0b1fe5727ba9d2fe24d6304a540899a667a410b6ada50878533",
  "args": [
    "0x81Fc3e50dD69C7751c3fF478Ed36E252E6a5eF06",
    "0x833589fCD6eDb6E08f4c7C32D4f71b54bdA02913"
  ],
  "numDeployments": 2,
  "solcInputHash": "18cdb70480fe725679345a5f13fa0ecb",
  "bytecode": "0x60c060405261271060005534801561001657600080fd5b50604051610a37380380610a3783398101604081905261003591610068565b6001600160a01b039182166080521660a05261009b565b80516001600160a01b038116811461006357600080fd5b919050565b6000806040838503121561007b57600080fd5b6100848361004c565b91506100926020840161004c565b90509250929050565b60805160a05161093261010560003960008181609d0152818161021f0152818161030b015281816103f2015281816104b1015261067701526000818161012101528181610193015281816101f0015281816102b601528181610587015261061401526109326000f3fe608060405234801561001057600080fd5b50600436106100935760003560e01c80638da5cb5b116100665780638da5cb5b1461011c578063b8d0613814610143578063c7321ab71461015a578063efbade9714610162578063f5bf3fcf1461017557600080fd5b80633013ce2914610098578063315a095d146100dc5780633ccfd60b146100f1578063673448dd146100f9575b600080fd5b6100bf7f000000000000000000000000000000000000000000000000000000000000000081565b6040516001600160a01b0390911681526020015b60405180910390f35b6100ef6100ea366004610769565b610188565b005b6100ef6102ab565b61010c61010736600461079e565b6103c8565b60405190151581526020016100d3565b6100bf7f000000000000000000000000000000000000000000000000000000000000000081565b61014c60005481565b6040519081526020016100d3565b6100ef610469565b6100ef610170366004610769565b61057c565b6100ef6101833660046107c0565b610609565b336001600160a01b037f000000000000000000000000000000000000000000000000000000000000000016146101d95760405162461bcd60e51b81526004016101d0906107ea565b60405180910390fd5b60405163a9059cbb60e01b81526001600160a01b037f000000000000000000000000000000000000000000000000000000000000000081166004830152602482018390527f0000000000000000000000000000000000000000000000000000000000000000169063a9059cbb906044016020604051808303816000875af1158015610268573d6000803e3d6000fd5b505050506040513d601f19601f8201168201806040525081019061028c9190610811565b6102a85760405162461bcd60e51b81526004016101d090610833565b50565b336001600160a01b037f000000000000000000000000000000000000000000000000000000000000000016146102f35760405162461bcd60e51b81526004016101d0906107ea565b6040516370a0823160e01b81523060048201526000907f00000000000000000000000000000000000000000000000000000000000000006001600160a01b0316906370a0823190602401602060405180830381865afa15801561035a573d6000803e3d6000fd5b505050506040513d601f19601f8201168201806040525081019061037e9190610862565b9050600081116101d95760405162461bcd60e51b81526020600482015260156024820152744e6f20746f6b656e7320746f20776974686472617760581b60448201526064016101d0565b604051636eb1769f60e11b81526001600160a01b03828116600483015230602483015260009182917f0000000000000000000000000000000000000000000000000000000000000000169063dd62ed3e90604401602060405180830381865afa158015610439573d6000803e3d6000fd5b505050506040513d601f19601f8201168201806040525081019061045d9190610862565b60005411159392505050565b61048b6040518060600160405280602181526020016108dc6021913933610704565b6000546040516323b872dd60e01b815233600482015230602482015260448101919091527f00000000000000000000000000000000000000000000000000000000000000006001600160a01b0316906323b872dd906064016020604051808303816000875af1158015610502573d6000803e3d6000fd5b505050506040513d601f19601f820116820180604052508101906105269190610811565b6105425760405162461bcd60e51b81526004016101d090610833565b60005460405190815233907f1cd2068bc74423e65aa2c7eafa1a04ae6609abb3532bfb400639734204024c989060200160405180910390a2565b336001600160a01b037f000000000000000000000000000000000000000000000000000000000000000016146105c45760405162461bcd60e51b81526004016101d0906107ea565b600080549082905560408051828152602081018490527f3e8bec6aeea3f895c88a597133329fb7a8046561a697a575ebac9ec97fccd919910160405180910390a15050565b336001600160a01b037f000000000000000000000000000000000000000000000000000000000000000016146106515760405162461bcd60e51b81526004016101d0906107ea565b60405163a9059cbb60e01b81526001600160a01b038381166004830152602482018390527f0000000000000000000000000000000000000000000000000000000000000000169063a9059cbb906044016020604051808303816000875af11580156106c0573d6000803e3d6000fd5b505050506040513d601f19601f820116820180604052508101906106e49190610811565b6107005760405162461bcd60e51b81526004016101d090610833565b5050565b610700828260405160240161071a92919061087b565b60408051601f198184030181529190526020810180516001600160e01b031663319af33360e01b1790526102a88160006a636f6e736f6c652e6c6f679050600080835160208501845afa505050565b60006020828403121561077b57600080fd5b5035919050565b80356001600160a01b038116811461079957600080fd5b919050565b6000602082840312156107b057600080fd5b6107b982610782565b9392505050565b600080604083850312156107d357600080fd5b6107dc83610782565b946020939093013593505050565b6020808252600d908201526c2737ba103a34329027bbb732b960991b604082015260600190565b60006020828403121561082357600080fd5b815180151581146107b957600080fd5b602080825260159082015274151bdad95b881d1c985b9cd9995c8819985a5b1959605a1b604082015260600190565b60006020828403121561087457600080fd5b5051919050565b604081526000835180604084015260005b818110156108a9576020818701810151606086840101520161088c565b50600060608285018101919091526001600160a01b03949094166020840152601f01601f19169091019091019291505056fe5374617274696e672076696e69617070206372656174696f6e2066726f6d202573a2646970667358221220b2bd8a8dfcf9f5c7dc974b3e45bdba719c48dfac1f2f14d6d536e53b07581a7764736f6c63430008140033",
  "devdoc": {
    "author": "BuidlGuidl",
    "kind": "dev",
    "methods": {},
    "version": 1
  },
  "userdoc": {
    "kind": "user",
    "methods": {
      "isApproved(address)": {
        "notice": "View function to check if a user has approved enough tokens"
      },
      "setViniappCost(uint256)": {
        "notice": "Function that allows the owner to update the viniapp creation cost The function can only be called by the owner of the contract as defined by the isOwner modifier"
      },
      "withdraw()": {
        "notice": "Function that allows the owner to withdraw all the tokens in the contract The function can only be called by the owner of the contract as defined by the isOwner modifier"
      }
    },
    "notice": "A smart contract that allows creating viniapps by paying with USDC tokens It also allows the owner to withdraw the tokens in the contract",
    "version": 1
  },
  "storageLayout": {
    "storage": [
      {
        "astId": 94,
        "contract": "contracts/ViniApp.sol:ViniApp",
        "label": "viniappCost",
        "offset": 0,
        "slot": "0",
        "type": "t_uint256"
      }
    ],
    "types": {
      "t_uint256": {
        "encoding": "inplace",
        "label": "uint256",
        "numberOfBytes": "32"
      }
    }
  }
}